:100000000C9434000C9480000C9476000C94B9008D
:100010000C9446000C9446000C9446000C945F002F
:100020000C9446000C9446000C9446000C94460038
:100030000C9446000C9446000C9446000C94460028
:100040000C9446000C9446000C9446000C94460018
:100050000C9446000C94FA000C9446000C94460054
:100060000C9446000C94460011241FBECFEFD8E03C
:10007000DEBFCDBF21E0A0E0B1E001C01D92A43001
:10008000B207E1F70E941D010C9465010C94000079
:100090002091C00025FFFCCFFC0180818093C60029
:1000A0008091C00085FFFCCF8AE08093C6008091DC
:1000B000C00085FFFCCF8DE08093C60008951F929D
:1000C0000F920FB60F9211248F93809103018F5FCF
:1000D00080930301803221F41092020110920101F9
:1000E0008F910F900FBE0F901F9018951F920F9237
:1000F0000FB60F9211240F900FBE0F901F901895FE
:100100001F920F920FB60F9211242F933F934F938C
:100110005F936F937F938F939F93AF93BF93EF936F
:10012000FF93CF93DF931F92CDB7DEB7809101018C
:1001300090910201019690930201809301018CE05D
:100140008983CE0101960E9448000F90DF91CF91E4
:10015000FF91EF91BF91AF919F918F917F916F919F
:100160005F914F913F912F910F900FBE0F901F9075
:1001700018951F920F920FB60F9211242F933F9351
:100180004F935F936F937F938F939F93AF93BF939F
:10019000EF93FF93CF93DF931F92CDB7DEB71C99F8
:1001A0001EC087E68983CE0101960E9448008BB16C
:1001B00090E289278BB90F90DF91CF91FF91EF915A
:1001C000BF91AF919F918F917F916F915F914F916F
:1001D0003F912F910F900FBE0F901F9018951D9972
:1001E000EACF8AE68983CE0101960E9448008BB14E
:1001F00090E4DFCF1F920F920FB60F9211248F93CE
:100200009F9380917C008F7061F480910001811137
:1002100008C0809178009091790090938900809334
:10022000880080917A00806480937A009F918F91FA
:100230000F900FBE0F901F901895789480E48093D4
:100240007C008DEE80937A00219A8BE88093800069
:1002500021E02093810080E092E0909389008093D8
:10026000880083EF8093B30084E08093B00085E042
:100270008093B10082E08093700096E090936900D3
:1002800083E08DBB8AB1837F8AB98BB18C608BB9D7
:100290002093680080E380936B0084B18F7C84B9E5
:1002A00085B1806385B98AB180668AB98BB1806671
:1002B0008BB927E630E03093C5002093C4009093BB
:0E02C000C20088E08093C100FFCFF894FFCF0A
:00000001FF
