:100000000C9434000C9461000C9448000C947A0019
:100010000C9446000C9446000C9446000C94460048
:100020000C9446000C9446000C9446000C94460038
:100030000C9446000C9446000C9446000C94460028
:100040000C9446000C9446000C9446000C94460018
:100050000C9446000C9446000C9446000C94460008
:100060000C9446000C94460011241FBECFEFD8E03C
:10007000DEBFCDBF21E0A0E0B1E001C01D92AA35F6
:10008000B207E1F70E9493000C94DF000C9400008B
:100090001F920F920FB60F9211248F939F9380910E
:1000A000C00085FFFCCF8DE08093C6008BB190E44B
:1000B00089278BB99F918F910F900FBE0F901F9042
:1000C00018951F920F920FB60F9211248F939F9342
:1000D0008091C00085FFFCCF8EE08093C6008BB17D
:1000E00090E289278BB99F918F910F900FBE0F904F
:1000F0001F9018951F920F920FB60F9211248F9395
:100100009F931C9909C080915801909159010196C3
:1001100090935901809358019F918F910F900FBE3A
:100120000F901F901895789480E480937C008CE366
:1001300080937E0087E880937A00219A8BE88093F1
:10014000800081E0809381008AE08093690093E0E1
:100150009DBB8AB1837F8AB98BB18C608BB9909338
:10016000680080E380936B0024982C9A8AB18066A3
:100170008AB98BB180668BB987E690E09093C50011
:100180008093C40086E08093C20088E08093C10021
:1001900080917C00807F80937C0080917A008064D5
:1001A00080937A0080917A0084FFFCCF8091780060
:1001B000909179009093890080938800E9CFF8941A
:0201C000FFCF6F
:00000001FF
