:100000000C9434000C94C5000C9446000C94DC0055
:100010000C9446000C9446000C9446000C948D0001
:100020000C9446000C9446000C9446000C94460038
:100030000C9446000C9446000C9446000C94460028
:100040000C9446000C9446000C9446000C94460018
:100050000C9446000C9446000C9446000C94460008
:100060000C9446000C94460011241FBECFEFD8E03C
:10007000DEBFCDBF21E0A0E0B1E001C01D92A43001
:10008000B207E1F70E940F010C9475010C94000077
:10009000CF93DF9300D0CDB7DEB79A838983809169
:1000A000C00085FFFCCF89819A819093C600809122
:1000B000C00085FFFCCF89819A818093C6000F9094
:1000C0000F90DF91CF9108959091C00095FFFCCFE4
:1000D0008093C6008091C00085FFFCCF8AE08093AA
:1000E000C6008091C00085FFFCCF8DE08093C600E4
:1000F000089590917C00907F892B80937C00809163
:100100007A00806480937A0080917A0084FFFCCF2B
:10011000809178009091790008951F920F920FB608
:100120000F9211242F933F934F935F936F937F937D
:100130008F939F93AF93BF93EF93FF9380910301AE
:100140008F5F80930301803279F480910101909157
:1001500002016CE070E00E946101CB010E94480046
:100160001092020110920101FF91EF91BF91AF91A6
:100170009F918F917F916F915F914F913F912F91BF
:100180000F900FBE0F901F9018951F920F920FB6F1
:100190000F9211248F939F938091010190910201FE
:1001A000019690930201809301019F918F910F908E
:1001B0000FBE0F901F9018951F920F920FB60F92BF
:1001C00011242F933F934F935F936F937F938F935C
:1001D0009F93AF93BF93EF93FF931C9918C087E64B
:1001E0000E9464008BB190E289278BB9FF91EF9157
:1001F000BF91AF919F918F917F916F915F914F913F
:100200003F912F910F900FBE0F901F9018951D9941
:10021000EDCF8AE60E9464008BB190E4E5CF78943C
:1002200080E480937C008CE380937E0087E8809359
:100230007A00219A8BE88093800081E0809381008E
:1002400020E032E0309389002093880093EF909370
:10025000B30094E09093B00095E09093B10092E0E9
:1002600090937000909369008DBB52985A9A809336
:10027000680080E380936B0084B18F7C84B985B182
:10028000806385B98AB180668AB98BB180668BB983
:1002900087E690E09093C5008093C40086E0809349
:1002A000C20088E08093C10080E00E9479009093B2
:1002B00089008093880081E00E9479000E944800B4
:1002C000F3CFAA1BBB1B51E107C0AA1FBB1FA61778
:1002D000B70710F0A61BB70B881F991F5A95A9F7EF
:0E02E00080959095BC01CD010895F894FFCF54
:00000001FF
