:100000000C9434000C9497000C948D000C94C50053
:100010000C9446000C9446000C9446000C94760018
:100020000C9446000C9446000C9446000C94460038
:100030000C9446000C9446000C9446000C94460028
:100040000C9446000C9446000C9446000C94460018
:100050000C9446000C9446000C9446000C94460008
:100060000C9446000C94460011241FBECFEFD8E03C
:10007000DEBFCDBF21E0A0E0B1E001C01D92A43001
:10008000B207E1F70E94F8000C9467010C9400009D
:100090009091C00095FFFCCF8093C6008091C00076
:1000A00085FFFCCF8AE08093C6008091C00085FF69
:1000B000FCCF8DE08093C600089590917C00907FE6
:1000C000892B80937C0080917C00806480937C00ED
:1000D00080917A00806480937A0080917A0084FF16
:1000E000FCCF809178009091790008951F920F9233
:1000F0000FB60F9211248F93809103018F5F80932D
:100100000301803221F410920201109201018F91BB
:100110000F900FBE0F901F9018951F920F920FB661
:100120000F9211240F900FBE0F901F9018951F92E1
:100130000F920FB60F9211242F933F934F935F931B
:100140006F937F938F939F93AF93BF93EF93FF939F
:100150008091010190910201019690930201809398
:10016000010183E40E944800FF91EF91BF91AF919C
:100170009F918F917F916F915F914F913F912F91BF
:100180000F900FBE0F901F9018951F920F920FB6F1
:100190000F9211242F933F934F935F936F937F930D
:1001A0008F939F93AF93BF93EF93FF931C9918C0C6
:1001B00087E60E9448008BB190E289278BB9FF91B6
:1001C000EF91BF91AF919F918F917F916F915F91CF
:1001D0004F913F912F910F900FBE0F901F90189548
:1001E0001D99EDCF8AE60E9448008BB190E4E5CFDF
:1001F000789480E480937C008CE380937E0087E891
:1002000080937A00219A8BE88093800021E02093EC
:10021000810080E092E0909389008093880083EFD2
:100220008093B30084E08093B00085E08093B100B8
:1002300082E08093700096E09093690083E08DBB2C
:100240008AB1837F8AB98BB18C608BB920936800A7
:1002500080E380936B0084B18F7C84B985B1806327
:1002600085B98AB180668AB98BB180668BB927E679
:1002700030E03093C5002093C4009093C20088E022
:100280008093C100DAE0CDE080E00E945D009093B1
:1002900089008093880081E00E945D002091C00069
:1002A00025FFFCCF9093C6009091C00095FFFCCF36
:1002B0008093C6008091C00085FFFCCFD093C6001C
:1002C0008091C00085FFFCCFC093C600DDCFF894BD
:0202D000FFCF5E
:00000001FF
